:020000040001F9
:108000000040002005E0010017E00100CD810100E3
:108010000000000000000000000000000000000060
:108020000000000000000000000000001BE0010054
:1080300000000000000000001DE001001FE0010042
:1080400021E0010021E00100B9B1010021E00100BF
:10805000D9F501000000000021E0010021E001004D
:1080600021E0010021E0010021E0010021E0010008
:1080700021E0010021E0010021E0010021E00100F8
:1080800021E0010021E00100CFB6010021E0010064
:1080900021E0010021E0010087F8010021E001005A
:1080A00021E0010021E001000000000000000000CC
:1080B00000000000000000000000000000000000C0
:1080C00000F002F800F038F80CA030C80838241886
:1080D0002D18A246671EAB4654465D46AC4201D100
:1080E00000F02AF87E460F3E0FCCB64601263342FA
:1080F00000D0FB1AA246AB4633431847187F000056
:10810000387F00000023002400250026103A01D308
:1081100078C1FBD8520700D330C100D50B6070473F
:1081200010B5642902D107F03BFC10BD002010BD42
:108130001FB51FBD10B510BD07F091FE1146FFF72A
:10814000F7FF00F0A7F807F0A9FE03B4FFF7F2FF6E
:1081500003BC07F0AFFE000070B505460C4616469E
:1081600002E00FCC0FC5103E102EFAD2082E02D31B
:1081700003CC03C5083E042E07D301CC01C5361F2E
:1081800003E021782970641C6D1C761EF9D270BD45
:1081900010B508E0032205231B07072424021B193E
:1081A00084001A51401C8842F4D910BD01210220DC
:1081B00000F0C6F90021032000F0C2F972B600E019
:1081C00020BFFDE7FFF7F2FFFFF7F0FFFFF7EEFF3D
:1081D00010B50446204600F0FEFA204600F080F973
:1081E00010BD10B504462078030007F087FE0B0988
:1081F000070814131B22292728172A0000BF00BFD5
:10820000A088012800DD1DE0A2681178207900F027
:1082100097F917E016E000F0ECF813E0207905F08C
:1082200044FB0FE0207909229203611D05F0E9FA71
:1082300008E02079611D05F0FCFA03E000BF01E0D1
:1082400000E000BF00BF10BD10B518211520FFF7DA
:108250009FFF002007E00146153101228A403F4B75
:108260009A6000BF401C0428F5D320210020FFF7AE
:108270008FFF0321112000F05FF80321122000F08E
:108280005BF80321132000F057F80321142000F0BD
:1082900053F810BD88B0FFF7D7FF00BF0023482276
:1082A0002F49052007F0A7FA044600BF2546002DF8
:1082B00005D000BF2BA2C3212846FFF785FF00BFD2
:1082C00000BF2B4807F0CDFA2A4807F0D3FA02F096
:1082D00043FE02F047FE2EE011241FE0204600F08E
:1082E00035F8002819D100BF204600F02FF80028EB
:1082F000FAD0601CC507ED0F12380221084046086D
:10830000009530460122694600F0F8F9002803D1B3
:10831000E9B2F0B200F014F900BF641C142CDDD9EE
:1083200001A800F09EFA002805D101A8FFF759FF27
:1083300001A800F0BEFACFE710B58A0005231B079D
:10834000072424021B1984001A5110BD014603485A
:108350000069C840C007C00F70470000000500500A
:108360007C2100202E2E5C6D61696E2E6300000062
:10837000D1810100EF87010010B504462088502804
:108380000BD0512802D0522808D100E007E0A08885
:1083900000231A461946A9DF01E000E000BF00BF34
:1083A00010BD70B5044620881038030007F0A6FD04
:1083B0000906071E0A1E1E1E1D1C1E0017E053483C
:1083C00073DF14E000BFA0880023514A19467FDF05
:1083D0000546002D06D000BF4EA272212846FFF7A9
:1083E000F3FE00BF00BF02E001E000E000BF00BFFD
:1083F00070BD70B596B00020159010A9087414A82F
:1084000060DF0446002C0DD0082C0BD000BF2646A0
:10841000002E06D000BF3FA28F213046FFF7D4FECA
:1084200000BF00BF062530213F4807F0C4FB3E488F
:10843000C57002203C4908703C480068139011A8A0
:1084400071DF044600BF2646002E06D000BF31A2D1
:108450009F213046FFF7B8FE00BF00BF11A840794A
:10846000000211A989790843024631A101A807F049
:108470004DFA01A807F01EFB86B2324601A913A8E7
:108480007CDF044600BF2646002E06D000BF21A296
:10849000A6213046FFF798FE00BF00BF002122480A
:1084A00006F026FF044600BF2646002E06D000BF79
:1084B00018A2AA213046FFF787FE00BF00BF13486D
:1084C00073DF044600BF2646002E06D000BF11A26F
:1084D000AE213046FFF778FE00BF00BF16B070BD7A
:1084E00010B504462088F0210840102802D05028FA
:1084F00008D103E02046FFF754FF04E02046FFF7D1
:108500003BFF00E000BF00BF10BD000000200020C6
:10851000182000202E2E5C6E72665F6164765F63A9
:108520006F6E6E2E63000000C421002030FF01003A
:108530007262635F6D65736820232564000000002C
:10854000002906D10246153201239340044A936064
:1085500005E00246153201239340014AD36070477B
:10856000000500500FB4FEB50021029102A812DFF1
:108570006846007A002804D10220FEBC08BC04B082
:108580001847DE480078002801D00820F5E70A984F
:10859000052803D3DA490A98884201D90720ECE775
:1085A00004F027FE03F0A9F803F032FD08AD2979A5
:1085B000089802F0C6F82B7C2A797D26F6000A9DE1
:1085C00075432846089903F08DFA0446002C01D023
:1085D0002046D2E70020019069460870684660DFB7
:1085E0000446002C03D0082C01D02046C5E708AB78
:1085F00019790A9A089801F04AFE0446002C01D025
:108600002046BAE70B9801F0C1FABE490898086005
:1086100008A80079BC490870BC490A980860012084
:10862000B64908700820BA498860BA4808601C201A
:10863000486000204861084602F008FF01F064FB32
:1086400004F091FF99E7AD480078704710B5AB484A
:108650000078022801D0082010BD01F055FB012050
:10866000A64908700020F7E710B5A4480078012853
:1086700001D0082010BD01F00EFB02209F490870B8
:108680000020F7E710B50446A348844201DD10201E
:1086900010BD204603F036FCFAE710B504469E48AC
:1086A000844201DD102010BD204603F040FCFAE7B3
:1086B00070B504460D4691480078002801D1082085
:1086C00070BD9548844201DD1020F9E72946204617
:1086D00003F067FCF4E770B504460D468748007860
:1086E000002801D1082070BD8B48844201DD102094
:1086F000F9E72946204603F0D1FBF4E770B50546BB
:108700000E4614467D480078002801D1082070BD2F
:108710008148854201DD1020F9E7E2B23146284662
:1087200001F0E5FDE2B23146284603F044FBEEE7F6
:1087300070B504460D4616467748844201DD102088
:1087400070BD32462946204603F06EFBF8E701462D
:108750006A480078002801D10820704769480068FD
:1087600008600020F9E7014664480078002801D13C
:10877000082070476448007808700020F9E7014637
:108780005E480078002801D1082070475F480068E3
:1087900008600020F9E770B504460D465E48844243
:1087A00001DD102070BD2946204603F010FCF9E7DA
:1087B00070B504460D465848844201DD102070BD56
:1087C0002946204603F084FBF9E710B5044620460D
:1087D00003F0B7F910BD10B50446484800780028EA
:1087E00000D110BD204601F0A4FD00BFF9E710B58F
:1087F0000446204601F08BF810BD70B504463F4892
:108800000078002801D1082070BD002C01D10E2075
:10881000FAE721463E4802F02AFE0546002D1ED109
:10882000A06800281BD02078002807D0012806D097
:10883000022802D0042810D108E000BF00BFA068C1
:10884000002802D0A06803F029FC07E0A0680028F7
:1088500002D0A06803F022FC00E000BF00BF284661
:10886000D2E710B5044625480078002801D1082039
:1088700010BD2146264802F02EFE002801D005201A
:10888000F6E70020F4E710B504461C4800780028FD
:1088900001D1082010BD002C01D10E20FAE721469D
:1088A0001B4802F081FE002801D00520F2E70020DD
:1088B000F0E710B504462078002806D0012806D03D
:1088C000022803D0042810D108E000BF00BFA06830
:1088D000002802D0A06803F00EFC07E0A068002882
:1088E00002D0A06803F007FC00E000BF00BF10BD8D
:1088F00010B50446204601F0FDFF10BD20200020E9
:1089000060EA000024200020282000202C200020E5
:10891000F42100200C220020EFFF000070B5044677
:108920000D4601221207126991B201221207126943
:1089300092B25219501E07F059F9C6B200201FE03A
:1089400002212D4A516000BF2C4909680029FBD043
:1089500029498C6000BF294909680029FBD0002102
:10896000254A516000BF254909680029FBD0012133
:10897000090709690904890C89000C19411CC8B24E
:10898000B042DDDB70BDFFB500240022039B9B08D5
:108990009B00181800232AE00D78ED431543EAB236
:1089A0000E782546671CFCB2154F7E55491C042CD9
:1089B0001CD10024002A17D001250F4E756000BF7E
:1089C0000E4D2D68002DFBD00D4D2D68056000BFAC
:1089D0000A4D2D68002DFBD00025074E756000BFA5
:1089E000064D2D68002DFBD00022001D5B1C029D52
:1089F000AB42D1D3FFBD000000E5014000E40140DF
:108A00003020002001460878012805D1C868C01C24
:108A100080083022504370470878022808D101228C
:108A2000920288688018401E800AF84A5043F2E794
:108A30000878002800D1EEE70020C043EBE710B52E
:108A400004460120F24988602078022808D1A168F4
:108A50006068FFF763FF00BFA0680028FCD004E057
:108A60000023201D07C8FFF78EFF0120E849C860DA
:108A700010BDF7B584B004460E46E649306888421A
:108A800001D2306800E0E34807463846FF38F53841
:108A9000302107F0ABF88500A068A84200D2A56895
:108AA00006980560002D03D0FF20F530874201D2E3
:108AB00007B0F0BD01206946087020680190616828
:108AC000029103956846FFF7BAFFA068401BA060BB
:108AD0006068401960602068401920606846FFF7B0
:108AE00091FF3168081A306000BFE1E7F7B584B044
:108AF00004460E46C7493068884201D2306800E01B
:108B0000C44807463846FF38F538C04907F06EF8C4
:108B100085026068A84200D2656806980560002D4D
:108B200003D0FF20F530874201D207B0F0BD02200C
:108B3000694608702068019002956846FFF77FFF3C
:108B40006068401B60602068401920606846FFF73D
:108B500059FF3168081A306000BFE6E710B50446D7
:108B600021460120AC4A12689047AC480068401C7E
:108B7000AA490860AA4802F023FD00280AD0A748A5
:108B80000068A8490968884204D100210320A24A4C
:108B90001268904710BD10B50446214602209E4A37
:108BA000126890479D480068401C9C4908609C489A
:108BB00002F006FD00280AD0984800689949096823
:108BC000884204D100210320934A1268904710BDC7
:108BD00000B585B093480068002803D0924800781B
:108BE000002802D1012005B000BD022069460870AE
:108BF0008D480078022805D18C4801908C48016886
:108C0000029104E08B48019089480168029168460E
:108C100002F09DFD002805D0012040037C49C8607A
:108C20000020E0E70120DEE710B57F497C4802F034
:108C300052FC002808D000207B4908700120400326
:108C40007349C860002010BD00BF77480078002835
:108C500001D0012000E000200446002C05D100BF17
:108C600075A2F921FFF7B0FA00BF00BF6D48006898
:108C7000401C6C4908606C480078012804D16A489F
:108C800080686B49086003E067484068684908608D
:108C90000120D8E710B504465F4804606F4860497A
:108CA00008601020486008208860084602F0CEFB6B
:108CB00000205D49087010BD7FB504460D4600BF19
:108CC000002C01D0012000E000200646002E06D135
:108CD00000BF59A2FF211831FFF776FA00BF00BF8D
:108CE00000BF002D01D0012000E000200646002E2C
:108CF00006D100BF50A2FF211931FFF765FA00BF6E
:108D000000BF68460470284607C801AB07C3694620
:108D1000434802F0ACFB04B070BD10B5404802F00F
:108D20000BFC0821081A10BD10B53D4802F048FCA4
:108D3000002803D03C480078002801D0012010BD55
:108D40000020FCE701B582B0012040033049886073
:108D500048E043480078002804D0012040032C4913
:108D6000C8600EBD3048FFF74DFE002811D1FFF757
:108D70002FFF002804D1012040032549C860F0E7F7
:108D8000FFF752FF002804D1012040032049C860AA
:108D9000E7E70020019024480078022806D101AAC4
:108DA00002A92148001DFFF7A1FE09E01E48007836
:108DB000012805D101AA02A91B48001DFFF759FE91
:108DC000FF21F5310298884202D90198002804D188
:108DD000012040030E49C860C3E70298FF38F53808
:108DE000029000BFB5E7EFF31082D107C90F72B64A
:108DF0004200521E1B4B1B68D2181A4B1A601A46AF
:108E00001268002A30D001222FE000002256000014
:108E10000005005050C300003420002044200020F2
:108E2000EC2200204020002084230020978B0100AA
:108E3000382000205D8B01002E2E5C2E2E5C2E2E05
:108E40005C7262635F6D6573685C7372635C6D65B1
:108E500073685F666C6173682E63000004230020F2
:108E60003C200020482000200022034B1A700029DB
:108E700000D162B6704700003C2000200020D44999
:108E80000860401ED34988600120D3490861022050
:108E9000D249087000BF00BF70477CB5D04802F0CF
:108EA0004BFB044622E06946CD4802F07DFB0028DA
:108EB0001AD168464079022816D10021C84802F02C
:108EC0000AFBFFF7DBFF00BFC64800690028FBD1A3
:108ED000C549C86064230022D2430021C34D0098D5
:108EE0002D68A847641E00E002E000BF012CDAD81C
:108EF00000BF7CBD0EB50A2805DC4100091DB94A3A
:108F0000403A916015E0242805DC4100891DB54AEE
:108F1000403A91600DE0B64B0ECB02930192009166
:108F20000146253989006A465158AE4A403A916057
:108F300000BF4106490EAB4A51610EBD10B5044653
:108F40001320A3490860A079FFF7D4FFA549403951
:108F50002068486008209F4948600020A249C860F6
:108F6000A4480068000E9F4940398862A148006803
:108F70000002000A00020862607900280DD100BFDB
:108F800000BF2079C86201209349086093490870A6
:108F9000E07994494039C86015E000BF00BF9548AA
:108FA00000689549884204D003208E4940390863FF
:108FB00003E001208B49403908630120864948605D
:108FC00000208649087010BD70B504460D4616464F
:108FD00000208A49C8630120C863002081494039C4
:108FE000C860032008610220886025207D4948610F
:108FF0008E207C49403948628148C8617D480068BC
:10900000000E88627B4800680002000A00020862C5
:109010000020C862012008637A4848617A48886164
:109020007A488863FF20043048637948C8639420F5
:109030006C4948606948007803280BD108206849CA
:10904000886074480860082048600020486108462D
:1090500002F0FCF902206149087000206249C860F2
:109060000120012181406C4A116000BF00BF012135
:1090700081406A4A116000BF694804605B4805602E
:1090800068480660564802F09BFA002803D06448FE
:109090000068804706E000F034FE002802D001207E
:1090A00000F08DF870BD53490860704770B50446F4
:1090B000002C01D10E2070BD6079002804D12079E8
:1090C000012801DD1020F6E72146454802F0CFF9DE
:1090D000002801D00420EEE7EFF31080C507ED0F64
:1090E00072B600F00EFE002802D0012000F067F8F2
:1090F000002D00D162B60020DDE7FEB53A48C06819
:10910000002843D048480068002801D0012000E032
:10911000002002904448C56864263348C06900288E
:1091200005D000203049C8612E488068C6B20020B2
:109130002D49C86069462A4802F0CDF9044600BFAF
:109140002746002F07D000BF38A2FF2148313846FC
:10915000FFF73AF800BF00BF68464079012803D006
:1091600068464079022807D133462A461F4F0299A4
:1091700000983F68B84703E02A4900980968884783
:1091800000BF00BF02201549087001E0FFF785FE0F
:1091900012480078022803D01048007803280DD127
:1091A00001A90F4802F000FA002803D101A8FFF737
:1091B000C5FE02E01A480068804700BFFEBDC20637
:1091C000D20E01219140144A803A1160704700008C
:1091D0000012004000130040001000404C2000200E
:1091E000942300204015004000110040542000202E
:1091F00034FF01005C200020D6BE898EC01F0040D5
:1092000000D6BE8906010200250003025B060000AD
:1092100055555500AC23002080E200E000E100E05D
:109220005020002058200020001400402E2E5C2EDC
:109230002E5C2E2E5C7262635F6D6573685C737268
:10924000635C726164696F5F636F6E74726F6C2EC2
:109250006300000010B50023F94A84001351024650
:10926000103201239340F74A5360F74A15239B01BC
:10927000D2188300D15010BD10B500F097FA002429
:10928000F248007800280DD00021ED48C16001218E
:10929000ED48C164152189014018C068EC4909688E
:1092A000441801E0EB48046800F088FA204610BD3D
:1092B00070B586B000248EE0E148A1004058002837
:1092C0007ED00021DE48A200815000BF0120A040D6
:1092D000E149097808400646002E05D100BFDFA20B
:1092E0006621FEF771FF00BF00BF0120A040DA49F0
:1092F00009788143D848017020461030012181400F
:10930000D0488160FFF7B8FF0546DC48005D0221C8
:10931000084000281DD0A000D94908580321C903DE
:10932000884206D3A000D64908580121490788423F
:1093300009D900BF102600BFC8A26D211020FEF77A
:1093400043FF00BF00BFA000CD4A11582846884700
:109350003FE0002069460871A000C9490858032170
:10936000C903884206D3A000C5490858012149070E
:10937000884209D900BF102600BFB8A2742110206E
:10938000FEF722FF00BF00BFA000BD4908580290B1
:10939000039501A802F0DBF9002819D0A000B94913
:1093A0000858801DA100B74A5050A74A15239B01B9
:1093B000D218A300D258911DE0B2FFF74BFF00E096
:1093C00008E00120A040A44909780843A249087098
:1093D00000BF00BF641C032C00D26DE706B070BD57
:1093E000F8B504460D4617461E46032C01DB072040
:1093F000F8BDB007800FB04201D00A20F8E700F0B6
:10940000D5F9A0009E490F50A0009E490D509B48E1
:1094100006550020A1009C4A50500120A0408E49D2
:10942000097808438C49087088480078002810D0D3
:1094300087480068281A954A904203D984480068F2
:10944000401B02E082480068281A01462046FFF7C8
:1094500001FF00F0B3F90020CAE7FFB581B0044670
:109460000D461E460A9F032C02DB072005B0F0BD07
:10947000B807800FB84201D00A20F7E700F096F94C
:10948000A1007F4A03985050A0007E490D50A000D3
:109490007D490E500120A0406F49097808436E496C
:1094A0000870764807556948007800282AD068482F
:1094B0000068281A754A904203D965480068401B25
:1094C00002E063480068281A01462046FFF7C2FE02
:1094D0005B48A10041186E485122120182182046B3
:1094E0000830C00011506A48512109014118204636
:1094F0000830C0000818466020460830012181402D
:109500006448416000F05AF90020AFE7F8B504461E
:109510000F4616461D46032C01DB0720F8BDE80761
:10952000C00FA84201D00A20F8E700F03FF9A000E0
:1095300054490F50A00054490E5050480555434817
:109540000078002819D03E48A10041185048512207
:109550001201821820460830C00011504C48512199
:109560000901411820460830C0000818466020460E
:109570000830012181404748416000F01FF9002078
:10958000CCE710B50446032C01DB072010BDA0007A
:109590003D490858002806D00120A0402E490978EE
:1095A0000840002801D10520F0E700F0FFF8032C67
:1095B00019DA0120A0402849097881432648017022
:1095C00000202E4908552148007800280BD020465D
:1095D0001030012181401B48816020460830012164
:1095E00081402C48816000F0E9F80020CEE730B5DA
:1095F00085B005460024A6E0A00022490858144979
:109600000968401A2149884206D9A0001D49085816
:109610000F490968081A05E0A0001A4908580C49C2
:109620000968401A29467831094A1268891A174A86
:10963000914231D906490968491B783131E000006F
:109640004081004000830040008000406C200020EA
:109650006420002068200020602000202E2E5C2E38
:109660002E5C2E2E5C7262635F6D6573685C737234
:10967000635C74696D65722E6300000061200020D8
:10968000EC23002004240020F8230020FFFFFF7FAC
:1096900000F0014000F50140294678314A4A12683D
:1096A000891A884233D20120A040484909780840ED
:1096B00000281ED00120A040444909788143434836
:1096C00001704348005D02210840002805D0A00039
:1096D000404A1158284688470BE000206946087028
:1096E000A0003C49085801900295684602F02FF806
:1096F00000BFA00038490858002823D00120A1004D
:10970000354A515808600020A10050501AE001204D
:10971000A0402E4909780840002813D0A2002F4B02
:109720009A58521B2E4B9A4204D9A2002B4B9A589E
:10973000AA1A03E0A200294B9A58521B1146E0B224
:10974000FFF788FD641C032C00D255E70820012197
:109750008140244A116000BF1B4805600120224956
:10976000087005B030BD10B50146002016E0184A5B
:10977000125CD207D20F002A0FD001228240134B75
:109780001B789343114A13700022114B1A54830023
:10979000104CE2508300104CE250401C0328E6D3EA
:1097A000124801600020104A107010BDEFF31080C5
:1097B000C007C00F72B60E49086070470C480068B9
:1097C000002800D162B6704764200020602000208D
:1097D00061200020EC230020F82300200424002036
:1097E000FFFFFF7F00E100E06C20002068200020E8
:1097F0007020002010B5F8490968F84A12685143F2
:109800000846F74906F0F2F97D21C900401810BD5D
:1098100010B50446F3480078002807D0F248846069
:109820000320F2490870F048486001E0EE4850DF3C
:10983000E948046010BDEB49097800290DD0E649DC
:1098400009680918EA4A914202D9E3490968501A9D
:109850000121E64A1170114648607047F0B585B0A5
:10986000E44844680025E4480068002801D1E34842
:1098700030C0E24903C92A46201A8A410AD2DF4889
:10988000DF49036842680020C91A90410E19074653
:109890006F4105E02846D94A06CA661A9041074634
:1098A000CF4900206A4683C2039630463946009B62
:1098B000019A06F013F84904C00B0843D14909681E
:1098C0004018D0490860CD4830C005B0F0BDCE4842
:1098D0000078002800D17047BF480068C94909686E
:1098E0004018F8E710B5FFF7C9FAFFF7F0FF044694
:1098F000FFF739FF0020C4490870BA490870C3490E
:1099000008700420C249C8608020C86010BD70B5CE
:109910000446201F030006F0F1FA050D1C11040C8B
:109920002000BC480078012802D0BB48FFF770FF38
:1099300014E013E0B948FFF76BFF0FE000BF00250C
:1099400000BFB7A2D0210020FEF73EFC00BF00BF41
:1099500004E0B148FFF75CFF00E000BF00BF70BD4E
:109960000121AA4A1170704710B5A7480078002855
:1099700000D110BDFFF780FC97490968A14A126821
:109980008918081AAF49884208D9FFF775FC92492F
:1099900009689C4A12688918401AEAE7FFF76CFCCC
:1099A0008D490968974A12688918081AE1E79548AD
:1099B0000068704770B50446802095498860012092
:1099C0008849087093480078012802D0022814D1F1
:1099D00009E0022085490870002087490860FFF7E8
:1099E00081FF824870BD8C48FFF712FFFFF77AFFB6
:1099F0000020884908707D48F4E700BF00BF0020C0
:109A00007A490870230006F079FA05043D3A81404E
:109A1000910004207E49886001207B490870002065
:109A20007A49087088490860FFF718FF01F0BBFE0B
:109A300074480068FFF7DBFD00F08EFE764883492E
:109A40000860FFF7B4FF644909684618FFF7D2FEC3
:109A5000351A03237E4A29460020FFF7C1FC7B48C4
:109A60000068FFF7E8FE64480068401C624908602F
:109A7000002803D108460068401C086062E0FFF738
:109A80003CFB5FE0FFF714FC5CE053480068714961
:109A9000096840185049086000206E4908606A480B
:109AA0000068401C684908600020FFF76AFDFFF766
:109AB0007EFF494909684618FFF79CFE351A0323C3
:109AC000634A29460020FFF78BFC002047490870B5
:109AD0004948006801280CD13F4800685B49096883
:109AE00040184D49884210D258480068FFF7A3FE3D
:109AF0000BE0394800685549096840183C498842DC
:109B000003D252480068FFF796FE1BE04F480068FA
:109B100040084E490860084600687D21C900884217
:109B200003D94A480068FFF786FE0BE000BF002516
:109B300000BF3BA2FF214F310020FEF745FB00BFD5
:109B400000BF00BF00BF31480078002805D0324870
:109B5000FFF75EFEFFF7C6FE10E0244800780128FC
:109B600004D1224840683B49086007E0FFF7FCFE4B
:109B70000546FFF7E7F8002036490860002019493C
:109B8000087080202249C86018482BE700B50146BC
:109B900031480078002801D0082000BD0B0006F0F5
:109BA000ADF9096A5D120A066662160E6A00642043
:109BB0000A4A106063E09620084A10605FE01420B3
:109BC000064A10605BE0FA20044A106057E01E204D
:109BD000024A106053E0000090200020A4200020E2
:109BE00040420F009C200020782000208820002088
:109BF000A086010000B50040A8200020B020002071
:109C0000FFFFFF00942000209D2000209F200020C7
:109C100000050050A0200020102700007017000051
:109C20002E2E5C2E2E5C2E2E5C7262635F6D657331
:109C3000685C7372635C74696D65736C6F742E63BA
:109C400000000000FFFFFF7FBC20002098200020C4
:109C500061990100B82000209E200020FF20F530EF
:109C60003C4A10600BE032203A4A106007E04B207B
:109C7000384A106003E0FA20364A106000BF00BF87
:109C80000020354A10700120344A10703448354A9B
:109C90001060002081E770B500BF4FDF0546002D42
:109CA00007D000BF304AFF219B312846FEF78CFACF
:109CB00000BF00BF01202D490870EFF31080C407DA
:109CC000E40F72B62A480078002802D0012000F084
:109CD00039F8002C00D162B670BD10B502202349BE
:109CE0000870EFF31080C407E40F72B620480078C4
:109CF000002802D0012000F025F8002C00D162B627
:109D000010BD1B480078704710B500BF19484EDFE2
:109D10000446002C07D000BF134AFF21B93120466A
:109D2000FEF752FA00BF00BF002010490870FFF78D
:109D3000E8FF002801D0082010BD0948FFF768FDA2
:109D40000020F9E7C206D20E012191400A4A1160B3
:109D500070470000A42000209C2000209E200020AE
:109D60001027000090200020209C0100A02000204F
:109D70009D200020B599010000E200E00146087B2B
:109D8000FF2801D0012070470020FCE770B5044691
:109D90002046FFF7F3FF00280ED000202073201D7F
:109DA00005F00BFF06462046083005F006FF351883
:109DB000211D284605F012FF70BDFEB504460D4674
:109DC0007A480068281A7A49884201D97748056894
:109DD00076480560774802F0D9FA019020460830AD
:109DE00005F0EBFE4608201D05F0E7FE8719314619
:109DF000019805F0FBFE78182146009005F0EEFE74
:109E0000FEBD70B504460D46201D05F0D6FE281A8D
:109E1000674988422FD82046FFF7B0FF00282AD094
:109E20002046083005F0C9FE63490968634A126894
:109E3000514388420AD22046083005F0BEFE460053
:109E400021460831304605F0C9FE09E05A49096843
:109E50005A4A1268514308462146083105F0BEFEB1
:109E6000002020732046083005F0A7FE4619211D6A
:109E7000304605F0B3FE70BD70B506460C4615467B
:109E80004E4806604C4804604D480570494802F051
:109E9000BDFA70BD70B504460D462046FFF76EFF53
:109EA000002812D008204749886000BF00BF082062
:109EB0004449C86029462046FFF7A3FF207B401C89
:109EC000FF2802D0207B401C207370BD70B5044673
:109ED0000D46211D284605F081FE214608313748F0
:109EE000006805F07BFE29462046FFF766FF204606
:109EF000FFF74CFF70BD70B504460D461020314988
:109F0000886000BF00BF10202E49C860204608307E
:109F100005F053FE29490968884203D9294620469D
:109F2000FFF7D4FF70BD70B505460C46281D05F03F
:109F300044FE001B1E49884203D9291D204605F016
:109F40004DFE21462846FFF738FF70BD70B5054627
:109F50000C4616462846FFF711FF002801D1207055
:109F600013E0287B16490978884201DA012000E0D5
:109F70000020207031462846FFF743FF2078002854
:109F800003D131462846FFF718FF70BDFF2101734A
:109F9000704710B50446207BFF2805D100202073B0
:109FA00000212046FFF792FF10BD0000CC200020CA
:109FB000FFFFFF7F10240020C4200020C0200020CD
:109FC000C82000200005005010B586B00446FE48A9
:109FD0000088FE49884202D1FD4806B010BDFD4808
:109FE0008078002802D1FA48401EF6E705A862DF13
:109FF000002801D01120F0E76846007D002802D13A
:10A00000F348801CE9E7F348818968468180012193
:10A01000817100210181207802280FD004DC002802
:10A0200007D0012811D108E011280BD012280CD13B
:10A0300005E0E078001D00900AE000BF00BF0520A9
:10A04000009005E00320009002E00120009000BF96
:10A0500000BF68460390049401A9DB480088A6DF8E
:10A06000BBE730B587B004460D4611216846017044
:10A0700044708570FFF7A8FF07B030BD30B593B0CE
:10A0800004460020129000BF10A8007A01090901BF
:10A09000491C10A80172007AF0218843103010A9E1
:10A0A000087200BF00BF10A8407A01090901491CCD
:10A0B00010A84172407AF0218843103010A94872EC
:10A0C00000BF10A8807A06218843811C10A88172E5
:10A0D0001C210BA805F06FFD08A8007B0221884316
:10A0E000811C08A80173007B10218843411808A82F
:10A0F000017300200E9012A8109000200C900F9079
:10A100000A9008A8007AF02188430146103108A877
:10A110000172007A01090901491C08A80172407AFC
:10A12000F02188430146103108A84172407A0109A4
:10A130000901491C08A84172807A08218843014618
:10A1400008A88172807A10218843014608A881728C
:10A15000807A4108490008A88172807A06218843E4
:10A16000811C08A881729C48017808A8817104218B
:10A17000684681842068069060680790217A08A864
:10A180000170142101A805F016FD0921684681819E
:10A190000021C1810921018209A8019006A805902A
:10A1A0000AA802908B4908880B1D01AA0BA9A2DFFF
:10A1B0000546002D02D0032013B030BD0020FBE780
:10A1C00010B590B01C2109A805F0F5FC08A800798D
:10A1D00004218843011D08A80171007910218843DA
:10A1E000411808A8017100200E900F900A900D9060
:10A1F000089008A84078F02188430146103108A84B
:10A200004170407801090901491C08A84170807813
:10A2100006218843811C08A8817080780821884322
:10A22000014608A88170807810218843014608A85B
:10A230008170807841084900491C08A881706648EF
:10A2400001786846817705218183002101911421DD
:10A2500002A805F0B0FC012168460182002141827C
:10A260001B21818208A8039007A8029001A80690EC
:10A27000584908880B460C3302AA09A9A2DF0446F4
:10A28000002C02D0032010B010BD0020FBE7F0B579
:10A2900085B005460E461746019502976846067337
:10A2A000012181704D4901804A4A69460120A0DFA1
:10A2B0000446002C02D0032005B0F0BD46494848B2
:10A2C00063DF0446002C01D02046F5E701A8FFF724
:10A2D000D5FE0446002C01D02046EDE7FFF770FFC5
:10A2E0000446002C01D02046E6E70020E4E770B5E4
:10A2F00088B005460E461446172C02DD092008B02A
:10A3000070BD314800883149884210D0002168462C
:10A3100001714571290A817101A8C4702246314634
:10A3200002A805F0E9FB01A8FFF74EFEE7E7284881
:10A33000E5E7F0B589B005462888502876D1E88849
:10A3400024498989884272D12C46203420780028FB
:10A3500004D0012850D002286AD19FE0A178627809
:10A36000080210431949884204D12078F221FFF7EE
:10A3700078FEFBE0E278A378677819023943084653
:10A38000211D01F018FD0646002E30D169460872E5
:10A39000201D0490E17802A80173A1786278080278
:10A3A000104369468881012102A8C182FEF764FF3B
:10A3B000089002A8FEF721FA002813D02078F02197
:10A3C000FFF74FFE12E00000D2200020FFFF000048
:10A3D0000230000020240020D0200020E4FE0000F5
:10A3E00040FF010020788021FFF73BFE03E020784A
:10A3F000F021FFF736FEB9E0E078002802D001280E
:10A4000045D11BE02279002A01D0012200E0002280
:10A410001146A37866781802304301F0C2FD002887
:10A4200007D02078F221FFF71CFE35E0BEE09FE068
:10A4300097E020788021FFF714FE2DE02079002896
:10A4400012D0A278637811021943084601F05AFD30
:10A45000002804D02078F221FFF703FE1CE02078CA
:10A460008021FFF7FEFD11E0A27863781102194305
:10A47000084601F05CFD002804D02078F221FFF7A7
:10A48000F0FD09E020788021FFF7EBFD04E0207863
:10A49000F321FFF7E6FD00BF00BF67E0E07800288A
:10A4A00002D0012856D131E0A17862780802104329
:10A4B0004649884204D12078F221FFF7D2FD4EE0D0
:10A4C00000200890A278637811021943084608A971
:10A4D00001F07DFD002804D02078F121FFF7C1FDB7
:10A4E0003DE0122168460171A178607809020143BC
:10A4F00068464171090A8171E17801A8C17008A814
:10A50000017801A80171FFF75FFD28E0A278637868
:10A5100011021943084608A901F022FD002804D0C1
:10A520002078F221FFF79DFD19E0122168460171A4
:10A53000A17860780902014368464171090A817176
:10A54000E17801A8C17008A8017801A80171FFF79E
:10A550003BFD04E02078F321FFF783FD00BF00BF3F
:10A5600004E02078F421FFF77CFD00BF00BF2BE062
:10A57000E88817498988884209D12C462034217AF5
:10A58000206800F0D0F8606801F0D5FA1CE0E98896
:10A590000F48008A814217D12020405D002801D059
:10A5A000012000E000200A4988700DE0288810286A
:10A5B00003D1A8880749088006E02888112803D11C
:10A5C0000020C0430349088009B0F0BDFFFF000030
:10A5D00020240020D22000201CB5022168464171B1
:10A5E000C64801796846817101F01BFD002800D141
:10A5F0001CBD6846FEF75AFD002802D0009801F005
:10A600007AFD00BFF4E7F0B585B004460D46164666
:10A610001F46002D18D06078252815DC03206946D8
:10A62000087001940296FEF727FE039068460774AF
:10A6300001F08DF8002803D00120B049487102E0F4
:10A64000204601F02BFD00E000BF204601F053FD45
:10A6500005B0F0BD70B588B005462E46304601F015
:10A66000E1FD044600200090002C27D0617922797A
:10A67000090211430846694601F02AFC00281DD151
:10A6800068460078002819D004206946087160796E
:10A69000217900020843694608812046083003906A
:10A6A0002078C01FC1B201A80173FEF7E5FD059037
:10A6B00001A8FEF7A2F801A800F07FFC304601F0E7
:10A6C0001AFD08B070BD10B586B0044614228C493E
:10A6D00001A8FDF741FD039401A801F038F8002816
:10A6E00002D1204601F0DAFC204601F004FD06B05C
:10A6F00010BD10B581484079002801D1FFF76CFFEB
:10A7000010BD70B586B004460E4625460220694647
:10A7100008702878C01E0290281D0190684602F03B
:10A72000A8FE06B070BD70B505460C46282C07DAA9
:10A730007248056004712846FEF7B5FCFFF7CDFAB4
:10A7400070BD70B504460D4600206E49086029466C
:10A750002046FFF7E8FF70BD10B56B4A6B496C48A7
:10A76000FEF732FC10BD7CB504460D460120694958
:10A77000886000BF00BF01206649C86000200090CB
:10A7800001902078302188432070207880218843F0
:10A7900020700020A07000942978684601716978C3
:10A7A000817100214171E978C17100261EE0A8780D
:10A7B0000121B140084000280CD0204601F06EFC79
:10A7C0006846FEF773FC002809D0204601F093FC90
:10A7D00004207CBDA8783041002800D108E06846FC
:10A7E0008079401CC1B268468171761C202EDED370
:10A7F00000BF0020EDE7FFB58BB00646154600BF51
:10A80000002E01D0012000E00020079007980028CA
:10A8100006D100BF40A2FF211831FDF7D5FC00BFD3
:10A8200000BF20203B49886034466078252806DD3B
:10A830002020C860204601F05EFC0FB0F0BD31481A
:10A840000068002823D069460E9808722046093017
:10A8500003906078801FC1B2684641720622E11CF5
:10A86000401C05F049F920784006C10F6846017088
:10A870000C98049020780107090F6846C1710020E8
:10A880000695079068461F490968884700BF062259
:10A89000E11C08A8013005F02FF920784006C00F10
:10A8A00008A90870204601F0BDFC0746002F10D013
:10A8B00078793979000208432249884205DC294623
:10A8C00020460E9A01F040F903E029463846FFF78A
:10A8D00018FF204601F00FFC08484079002804D0FA
:10A8E000FFF77AFE00200549487120200949C86019
:10A8F00000BFA2E70349086070470000D420002091
:10A9000050FF0100DC200020C7A6010007A60100BF
:10A91000F3A60100000500502E2E5C2E2E5C2E2E7C
:10A920005C7262635F6D6573685C7372635C7472A2
:10A93000616E73706F72745F636F6E74726F6C2E82
:10A9400063000000EFFF00000146072912D008DC79
:10A9500000290DD0022913D0052915D0062917D1B9
:10A960000CE0082908D009290CD0112910D10DE0DC
:10A97000002070478520FCE78320FAE78220F8E773
:10A980008620F6E78420F4E79020F2E78620F0E7BF
:10A990008020EEE7F0B595B00446FAA1002003F060
:10A9A00008FE2646002705E0F25DFAA1002003F02C
:10A9B00000FE7F1C2078B842F6D2F9A1002003F0F7
:10A9C000F8FD607876287AD012DC722878D008DC1E
:10A9D000022817D00E282CD0702832D0712870D1C0
:10A9E00098E073286ED074286ED07528F7D17EE079
:10A9F0007738030005F082FA09FBFA65F9F8F7F6F3
:10AA000065F56500822108A84175217801752078D7
:10AA1000012806DD2078421EA11C0DA8023005F099
:10AA20006BF8E1A1002003F0C4FD0DA800F05AFB73
:10AA30008FE200F05AFCE3483EDF012044DF35DFBF
:10AA400087E2842108A84175617881750321017529
:10AA500020780A2804D084210DA8C170092519E0A6
:10AA6000A01C05F0AAF80190A07A69460872A01D02
:10AA700005F0A3F80390012004900598009001A828
:10AA80000FC8FDF76FFD05462846FFF75DFF0DA9CE
:10AA9000C87000BF002D0ED11C2106A805F08BF850
:10AAA00003206946087606A8FDF7A7FE0746FFF7CC
:10AAB0004BFF0DA9C8700DA800F014FB49E295E109
:10AAC00081E035E2A5E0FFE7842108A841756178BF
:10AAD000817503210175FDF7B9FD05462846FFF78D
:10AAE00033FF0DA9C8700DA800F0FCFA31E28421F3
:10AAF00008A841756178817503210175FDF7B4FDE2
:10AB000005462846FFF720FF0DA9C8700DA800F0E4
:10AB1000E9FA1EE2842108A8417561788175032154
:10AB2000017505A801F07DFA002843D02078C01EE9
:10AB3000C7B220781A2804D984210DA8C17009252C
:10AB40000EE0E178A2780902114308463A46211D39
:10AB5000FDF7D4FD05462846FFF7F6FE0DA9C8709F
:10AB6000002D26D13A46211D0598093004F0C4FF76
:10AB70001C2106A805F01FF80020694608760598F4
:10AB80000930089006A80773E078A178000208430E
:10AB900069468883FEF770FB0C9006A8FDF72DFE32
:10ABA0000546059801F0A7FA2846FFF7CDFE0DA946
:10ABB000C87004E01120FFF7C7FE0DA9C8700DA8EA
:10ABC00000F090FAC5E1842108A84175617881758B
:10ABD00003210175207803280AD084210DA8C170B3
:10ABE00013E0C1E0A0E07FE063E031E07DE138E127
:10ABF000E178A278090211430846FDF743FD0546B6
:10AC00002846FFF7A1FE0DA9C8700DA800F06AFA4A
:10AC10009FE1842108A84175617881750321017540
:10AC20002078032803D084210DA8C1700CE0E178BE
:10AC3000A278090211430846FDF72FFD0546284674
:10AC4000FFF782FE0DA9C8700DA800F04BFA80E155
:10AC5000842108A8417561788175172101752078D4
:10AC6000032803D084210DA8C1701BE0E178A278ED
:10AC70000902114308460DAA911DFDF759FD07462B
:10AC80003846FFF761FE0DA9C870E078A178000290
:10AC900008430DA9888008A8007D401DC1B208A8FE
:10ACA000017500BF842008A948750DA800F01AFAA4
:10ACB0004FE1842108A841756178817506210175ED
:10ACC0002078012803D084210DA8C17008E000215C
:10ACD0000DA8017108214171052181710021C17008
:10ACE0000DA800F0FFF934E1842108A841756178CE
:10ACF0008175072101752078012803D084210DA8D2
:10AD0000C1700DE005A8FDF722FD05460EA90598C6
:10AD100004F064FF2846FFF717FE0DA9C87000BFB6
:10AD20000DA800F0DFF914E1842108A841756178CD
:10AD30008175042101752078012803D084210DA894
:10AD4000C1700DE005A8FDF70EFD07466846017DC0
:10AD50000DA801713846FFF7F7FD0DA9C87000BFB7
:10AD60000DA800F0BFF9F4E0842108A841756178CE
:10AD70008175072101752078012825D084210DA82F
:10AD8000C1702FE01B5B306D53657269616C20529E
:10AD9000583A20001B5B306D2530327800000000EF
:10ADA0001B5B306D0A0000001B5B306D4563686FF4
:10ADB0002E20526573706F6E64696E672E2E2E0A98
:10ADC000000000000F000F0005A8FDF7D8FC0546A5
:10ADD0000EA9059804F002FF2846FFF7B5FD0DA95E
:10ADE000C87000BF0DA800F07DF9B2E0842108A86A
:10ADF000417561788175032101752078052803D09C
:10AE000084210DA8C1702BE02079002802D00128F0
:10AE10001ED10EE06279002A01D0012200E000225A
:10AE20001146E278A37810021843FDF741FC05466D
:10AE300010E06279002A01D0012200E000221146D0
:10AE4000E278A37810021843FDF745FC054601E0BF
:10AE5000072500BF00BF2846FFF776FD0DA9C87083
:10AE600077E0842108A84175617881750721017513
:10AE70002078042803D084210DA8C17034E000207C
:10AE800005902079002802D0012814D109E0E1784A
:10AE9000A27809021143084605A9FDF77CFC074684
:10AEA0000EE0E178A27809021143084605A9FDF7F2
:10AEB0007FFC074604E00727032008A9087500BFA8
:10AEC00000BFE078A178000208430DA988802179AD
:10AED0000DA881716846017D0DA8C1713846FFF744
:10AEE00033FD0DA9C87000BF33E0842108A8417567
:10AEF00061788175052101752078411EA01C02F042
:10AF0000BDFB0546002D04D02A4644A1002003F0D5
:10AF100050FBE078A178000208430DA988802846FC
:10AF2000FFF712FD0DA9C8700DA800F0DBF810E0C6
:10AF300045A1002003F03DFB842108A841756178FC
:10AF400081750321017582210DA8C17000F0CAF836
:10AF500000BF00BF15B0F0BD10B500F0CEFB00F093
:10AF600065F910BD00B589B00421684601718121E1
:10AF70004171022181713DDF082100980840C1081C
:10AF800001A8C17000F0ACF9C1B201A8017100F0D4
:10AF9000A9F8002802D1042009B000BD0020FBE779
:10AFA00000B589B002E001A8FFF7F4FC01A800F0A9
:10AFB000B2F90028F7D109B000BD10B588B0044639
:10AFC000207800280ED0012804D0022806D00428BA
:10AFD00010D10BE0B520694648700CE0B3206946FB
:10AFE000487008E0B4206946487004E0B62069461D
:10AFF000487000E000BF00BF207BC01CC1B26846A3
:10B000000170A1884180227B01A8A16804F074FD31
:10B01000684600F067F808B010BD00001B5B306D9B
:10B020001B5B323B33316D424C20526573706F6E47
:10B030006465642077697468206572726F7220306D
:10B040007825780A000000001B5B306D556E6B6E32
:10B050006F776E206576656E74210A0010B5044620
:10B06000FFF79EFF10BD10B50446E249E24800F02C
:10B0700032FA002817D1DF484078E0490860DD48FF
:10B08000401CDF4908600020DE49C8610120DE491C
:10B090008860DB4800680078DC49C861D8480068EF
:10B0A000401CD749086010BD00B585B0D84800786D
:10B0B000002815D1D7480078022811D00220D549A0
:10B0C000087069460870D4480190002102916846D2
:10B0D00000F03DFB002802D00020CE49087000BFE0
:10B0E00005B000BD10B58AB00446C34804F014FF93
:10B0F000002802D000200AB010BD00206946087068
:10B100002078421C214600A8013004F0F5FC694675
:10B11000B94800F0ACF9BF480078002801D1FFF72A
:10B12000C3FF0120E7E730B589B00546BB4800689A
:10B130000570BA480068401CB849086008460168B4
:10B14000B7480C1A272C06D2012C33D9401E407860
:10B15000401CA0422ED8B249491EB24800F087F9DF
:10B1600000280FD003216846017184214171AC4849
:10B17000401E817868468171862101A8C170FFF761
:10B18000B1FF0AE0022069460874A7480590002133
:10B19000069104A800F0DBFA00BFA24804F0BCFE50
:10B1A000002804D001209B490870974948609C48BA
:10B1B0009A49086009B030BD10B507E000209149F8
:10B1C000886092498969C8B2FFF7ADFF8D488068F1
:10B1D0000028F3D18B48C069002826D00020894977
:10B1E000C861864801680068401E844A10600029D2
:10B1F0000AD08348006800788449C86180480068A4
:10B20000401C7F49086010E001207F49C8608148E8
:10B210000078012802D000207E490870764800F0AE
:10B22000CFF9002801D1FFF73FFF10BD10B5042072
:10B23000714988607D480860272048600020486187
:10B24000084600F003F904207649886078480860D1
:10B250002720486000204861084600F0F7F80020E9
:10B260006B49087003210B2000F0B9F8032000029D
:10B2700070498860082000F0A9F803210A2000F036
:10B28000AEF8092000F0A2F800206B49C863012045
:10B29000C86309205D49C8600B2048610A20086125
:10B2A00008208860012059494031C86263485749E5
:10B2B00048620420086084206149486000205149A8
:10B2C0008860C8610120504908600321022000F015
:10B2D00046F80220012181405A4A116000BF10BD8A
:10B2E00010B5504800F028F910BD10B5EFF31080EC
:10B2F000C407E40F72B601204549087001E0FFF76A
:10B300005BFF444800780028F9D141490870002CBF
:10B3100000D162B610BD10B58AB0044669464148F6
:10B3200000F0D9F8002802D000200AB010BD68460D
:10B330004078002807DD68464078421C00A90131AA
:10B34000204604F0D9FB33480078012805D10020BD
:10B350003049087001202C4908600120E5E710B54C
:10B36000002819DA384A03071B0F083B9B089B008B
:10B37000D2588307DC0EFF23A3409A438B071B0E92
:10B380008407E40EA3401A432F4B0407240F083C04
:10B39000A408A4001A5118E02A4A03231B02D21859
:10B3A00083089B00D2588307DC0EFF23A3409A43F7
:10B3B0008B071B0E8407E40EA3401A43214B032482
:10B3C00024021B198408A4001A5110BD0321052270
:10B3D000120707231B02D2188300D150704710B503
:10B3E0008A0005231B07072424021B1984001A5115
:10B3F00010BD00009C2500204C240020E4200020EB
:10B40000E8200020002100400020004000250040EE
:10B41000EC200020E020002067B00100F020002098
:10B42000C4250020342400205DB001000025002048
:10B430006424002000050050C02F004000E0D70128
:10B440000023004000E100E01CED00E0202100BFEF
:10B450004B1E19468268DA40D207D20F002AF7D075
:10B4600001228A4082600022C26002617047F8B502
:10B4700004460E46002E01D10E20F8BDEFF31080D9
:10B48000C507ED0F72B6A16820694018E1688842CF
:10B4900004D1002D00D162B60420EEE7A168491E58
:10B4A000E0680840616848432168471860690028DF
:10B4B00004D0314638466269904704E03146384648
:10B4C000626804F019FBE068401CE060002D00D1C8
:10B4D00062B60020D1E7F8B504460D46EFF31080C0
:10B4E000C607F60F72B6E1682069884204D1002EC3
:10B4F00000D162B60E20F8BD002D15D0A168491EFE
:10B50000206908406168484321684718606900283D
:10B5100004D0394628466269904704E039462846F7
:10B52000626804F0E9FA00BF2069401C2061002E27
:10B5300000D162B60020DEE701460A69C868801AB9
:10B540007047F8B504460D461646002D01D10E2071
:10B55000F8BDEFF31080C707FF0F72B62046FFF764
:10B56000EBFFB04204D8002F00D162B60E20EFE707
:10B5700020698019A168491E084061684843216814
:10B58000401800906069002804D06269284600993C
:10B59000904704E062682846009904F0ADFA002F55
:10B5A00000D162B60020D3E770B504460D460022F4
:10B5B00029462046FFF7C5FF70BDC168016170478D
:10B5C0000146CA680869904201D1012070470020F5
:10B5D000FCE7000070B504462078030004F08EFC00
:10B5E0000504401C343A59000321C90360688842AD
:10B5F00004D3012149076068884209D900BF10259A
:10B6000000BFABA23E211020FCF7DEFD00BF00BF53
:10B610006168A06888473DE00321C90360688842EB
:10B6200004D3012149076068884209D900BF102569
:10B6300000BF9FA242211020FCF7C6FD00BF00BF43
:10B640006168A068884725E0237C201D07C8FFF7B4
:10B65000D2F81FE0E279A179A08801F08BFA19E015
:10B660000321C9036068884204D301214907606847
:10B67000884209D900BF102500BF8DA2512110209A
:10B68000FCF7A2FD00BF00BF6268E168A0689047B8
:10B6900000E000BF00BF70BD30B585B0044640205B
:10B6A0008D49886069462046FFF715FF0546002D45
:10B6B00008D16846FFF78EFF40208749C860012007
:10B6C00005B030BD40208449C8600020F8E710B5BF
:10B6D00010E000248148FFF7DFFF0443FEF711FB71
:10B6E000002803D07E48FFF7D7FF0443002C00D189
:10B6F00001E000BFEDE700BF10BD10B5794800784C
:10B70000002800D010BD0820744988607648086081
:10B7100014204860002048610846FFF797FE082083
:10B720006F498860714808601420486000204861B3
:10B730000846FFF78BFE122000F070F8032112205C
:10B7400000F07CF801206749087000BFDAE770B5A7
:10B750000446002C01D10E2070BD00262078030085
:10B7600004F0CCFB0509070405060B0000BF00BF71
:10B7700000BF5A4E03E05A4E01E00720ECE700BF3D
:10B7800021463046FFF773FE0546002D01D02846BE
:10B79000E2E7122000F04AF80020DDE710B550483B
:10B7A000FFF70BFF10BD10B54C48FFF709FF00284D
:10B7B00004D04B48FFF704FF002802D1122000F00C
:10B7C00035F810BDEFF31080C107C90F72B64848B5
:10B7D00002680068401C464B1860002A06D11220FF
:10B7E00001228240434B1A6000BF00BF002900D1F4
:10B7F00062B6704710B5EFF31080C407E40F72B65D
:10B800003B480068401E3A490860002802D11220D7
:10B8100000F004F8002C00D162B610BDC206D20EB2
:10B8200001219140334A803A11607047C206D20E1E
:10B83000012191402F4A80321160704710B50028D5
:10B8400019DA2D4A03071B0F083B9B089B00D258AF
:10B850008307DC0EFF23A3409A438B071B0E84074C
:10B86000E40EA3401A43244B0407240F083CA40809
:10B87000A4001A511AE01F4A803A03231B02D2186F
:10B8800083089B00D2588307DC0EFF23A3409A4312
:10B890008B071B0E8407E40EA3401A43154B803B15
:10B8A000032424021B198408A4001A5110BD0000AF
:10B8B0002E2E5C2E2E5C2E2E5C7262635F6D657385
:10B8C000685C7372635C6576656E745F68616E64F4
:10B8D0006C65722E6300000000050050EC2500200E
:10B8E000A4260020F420002004260020BC260020EE
:10B8F000F820002080E100E01CED00E00246C82AAC
:10B9000008DAFD481018884201DD881A00E0FA487C
:10B9100000B27047C82909DAF7480818904201DDDB
:10B92000881A01E0F448C04300B2F2E7914201DB1B
:10B93000881A00E0501A0346EF48834208D98A4229
:10B9400003DD1046C83082B202E00846C83081B23A
:10B95000881A00B2DDE770B504460D46002C05D00C
:10B96000002D03D020782978884201D0012070BDB5
:10B970002078C21F294608312046083004F046F8D6
:10B98000002801D00120F2E70020F0E7F0B589B0EF
:10B990000646FF200130D94988600720019001AA9E
:10B9A00002A9304601F088FA00900098002861D181
:10B9B00000245CE0A10002AA5058D149FEF7D3FE52
:10B9C0000090009800284CD1A10002AA505800F025
:10B9D00029FC0546002D39D0002021E069792A791B
:10B9E000090211430722121A1141C907C90F002980
:10B9F0000AD001214906C14A916000BF00BF012160
:10BA00004906BE4AD16009E001210907BB4A91609D
:10BA100000BF00BF01210907B84AD160411CC8B26C
:10BA20000828DBDB00BF69792A790902114308463F
:10BA3000314601F0ABFA0746002F06D000BFB1A295
:10BA4000A2213846FCF7C0FB00BF09E000BF0B276E
:10BA500000BFACA2A6210B20FCF7B6FB00BF00BFC5
:10BA600000BFA10002AA505800F045FB641C0198D9
:10BA700084429FD3FF200130A049C860304600F0C7
:10BA800012F809B0F0BD10B586B004460120694631
:10BA90000871A648029003940021049101A8FFF7C1
:10BAA00056FE06B010BD38B50546684601F0D9F916
:10BAB000044668460078002800D138BD7D20C000CB
:10BAC0002818844203D22046FFF7DDFF08E0214614
:10BAD000974801F0B8FB002802D02046FFF7D3FFBB
:10BAE00000BFEAE7FFB581B00C4615461E46019837
:10BAF00000F052FF0746002F02D0384605B0F0BDD7
:10BB000000208B4908618948486000208860C8602F
:10BB10008848844201D0012000E000207849087064
:10BB200008464570012088700846C6700120824989
:10BB300008700020E2E710B50446204600F01AFF26
:10BB400010BD6F49C8707047F7B58CB007463846CE
:10BB500000F068FB0446002C02D10B200FB0F0BDB2
:10BB6000617922790902114308460AA900F0A4FF6D
:10BB70000546E279A37912021A4311466A46108DEE
:10BB8000FFF7BCFE064603A8C68238784006C10F00
:10BB900003A881730622F91C0F3003F0ADFF0E9845
:10BBA000404241B203A841732046083005902078F6
:10BBB000C01FC1B203A80173607921790002084354
:10BBC0006A4610820D980990052D4CD102206946D5
:10BBD000087303A8C68261792279090211430846D5
:10BBE0000AA900F00EFE0546002D04D00B9800F0C7
:10BBF00082FA2846B2E7384600F08EFBE079A17958
:10BC00000002084369468880029703A8FCF7F5FD07
:10BC1000002821D100BF6179227909021143084629
:10BC200001A900F0EEFD00900098002807D000BFA9
:10BC300034A2FF2107310098FCF7C6FA00BF00BF0D
:10BC40002178C91FCAB261792379090219430846CC
:10BC500021460831FEF74BFB0D98FFF714FF03A8B0
:10BC6000FFF7ABF9A2E0002E0BDA61792279090225
:10BC7000114308460D9901F0D1F80D98FFF703FF25
:10BC800094E0002E23D1002002900B98002803D0CE
:10BC90000B9800F0C7FA0290029800280ED02146B7
:10BCA0000298FFF758FE002808D001206946087363
:10BCB00003A8FCF7A2FD03A8FFF77FF961792279B9
:10BCC0000902114308460D9901F085F86EE0002045
:10BCD0006946087303A8C682617922790902114373
:10BCE00008460AA900F08DFD0546002D26D00B98C8
:10BCF00000F001FA284631E7FF7F00000005005000
:10BD0000FD2000202E2E5C2E2E5C2E2E5C72626397
:10BD10005F6D6573685C7372635C76657273696F7F
:10BD20006E5F68616E646C65722E63008DB9010090
:10BD30005C270020D6BE898EFC200020384600F00B
:10BD4000EBFAE079A17900020843694688800297FE
:10BD500003A8FCF752FD002821D100BF61792279A8
:10BD600009021143084601A900F04BFD009000981C
:10BD7000002807D000BFA34AFF2145310098FCF7F7
:10BD800023FA00BF00BF2178C91FCAB261792379A5
:10BD900009021943084621460831FEF7A8FA0D9812
:10BDA000FFF771FE03A8FFF708F900BF0B9800F03A
:10BDB000A2F90020D2E6FEB505460E461746924887
:10BDC0000078002801D10820FEBD0020019001A8C4
:10BDD00000F027F9002801D10420F5E733460122BD
:10BDE00029460097019800F0E4F90446002C04D09D
:10BDF000019800F080F92046E6E7019800F0A1FEE6
:10BE00000446002C04D1FDF737FA0090FFF73BFE03
:10BE1000019800F070F92046D6E710B5FDF72CFA2E
:10BE20000446FFF730FE10BDF7B582B016467648DF
:10BE30000078002802D1082005B0F0BD69460298BC
:10BE400000F03AFE0746002F01D03846F4E701988B
:10BE5000002801D10520EFE7019800F0E3F904463E
:10BE6000002C04D1019800F046F90520E4E7207881
:10BE7000C01F85B23088A84204DA019800F03BF96F
:10BE80000920D9E72A4621460831039803F034FEF9
:10BE90003580019800F02FF90020CDE770B50446F9
:10BEA0000D4659480078002801D1082070BD574838
:10BEB000844201D11020F9E7FFF784FC2A460121D2
:10BEC000204600F03CFF0646FFF794FC3046EDE7C5
:10BED00070B504460D464C480078002801D1082072
:10BEE00070BD4A48844201D11020F9E7FFF76AFC8F
:10BEF0002A460121204600F032FF0646FFF77AFC71
:10BF00003046EDE770B504463F480078002801D17F
:10BF1000082070BD3D48844201D11020F9E700227D
:10BF20000221204600F00BFF05462846F1E770B5D8
:10BF3000044635480078002801D1082070BD3348F8
:10BF4000844201D11020F9E7FFF73CFC01220221D5
:10BF5000204600F0F4FE0546FFF74CFC2846EDE7CE
:10BF600070B505460C4628480078002801D1082005
:10BF700070BD2648854201D11020F9E7FFF722FC69
:10BF800022460221284600F0EAFE064620780028D4
:10BF900001D1012000E000202070FFF72BFC30468B
:10BFA000E6E770B504460D4617480078002801D131
:10BFB000082070BD1548844201D11020F9E72A46B7
:10BFC0000021204600F0BBFE06463046F1E770B582
:10BFD00004460D460C480078002801D1082070BDA9
:10BFE0000A48844201D11020F9E7FFF7EBFB2A460B
:10BFF0000021204600F0B3FE0646FFF7FBFB30466B
:10C00000EDE7000004BD0100FC200020FFFF000060
:10C01000002003E00021D04A1154401C1D28F9D310
:10C02000704770B50546002119E0EFF31080C40792
:10C03000E40F72B6C848405C00280CD10120C64A03
:10C04000505428204843C54A80182860002C00D14D
:10C0500062B6012070BD002C00D162B6491C1D29BA
:10C06000E3D300BF042600BFBDA244210420FCF797
:10C07000ABF800BF00BF0020ECE770B50446B7493D
:10C08000601A282103F0B2FD05461D2D04D2282098
:10C090006843B249401870BD0020FCE7F8B505467A
:10C0A000AE49681A282103F0A1FD04461D2C01D3D6
:10C0B0000020F8BDEFF31080C607F60F72B6A64851
:10C0C000005D002803D0A448005DFF2809D100BF0F
:10C0D000042700BFA2A262210420FCF775F800BF6C
:10C0E00000BF9D48005D401C9B490855002E00D1B3
:10C0F00062B60120DDE7F8B506469849701A282196
:10C1000003F074FD04461D2C01D30020F8BDEFF3AD
:10C110001080C507ED0F72B68F48005D00280ED164
:10C1200000BF082700BF8EA276210820FCF74CF83C
:10C1300000BF00BF002D00D162B60020E6E78648B0
:10C14000005D401E84490855002D00D162B682482A
:10C15000005D002801DD0120D8E70020D6E770B59A
:10C1600004467E49601A282103F040FD05461D2D36
:10C1700001D3002070BD7848405DFBE77CB50446E4
:10C18000684671DF0546002D01D028467CBD207829
:10C1900040218843694609788901402211400843BB
:10C1A0002070062200A90131E01C03F0A5FC00204C
:10C1B000ECE7FFB581B005461F460A9E002D02D16F
:10C1C0000E2005B0F0BD2C460934172E01DD0920E4
:10C1D000F7E72846FFF7D2FF30460E306870287820
:10C1E00000090001801C2870F01D2070162060706E
:10C1F0006448A070000AE07002982071000A607123
:10C200000398A071000AE071002E09DD002F07D00D
:10C21000172E05DC324639462046083003F06CFC08
:10C220000020CEE70246002A00D1704711460931AE
:10C230005078062802DD5078252801DD0020F4E73B
:10C240000FE00B7810460930081A1B185078801F31
:10C25000834201D90020E8E70878401C4301181AFE
:10C26000091848781628ECD1C8788B780002184352
:10C27000444B9842E5D10846D7E730B504462046FE
:10C28000FFF7D0FF0546002D01D10B2030BD204621
:10C29000093085420ED02878401CC1B2002004E04D
:10C2A0002B5C224609321354401C8842F8D32546A1
:10C2B000093500BF2878C01D60700020E6E730B562
:10C2C00005462846FFF7AEFF0446002C01D12E4854
:10C2D00030BD6079217900020843F9E70246114632
:10C2E000093110E04878162806D1C8788B7800020A
:10C2F0001843244B984201D0012070470878401C15
:10C300004301181A09185078C01F13460933C01882
:10C310008842E7D80020F0E710B504462046FFF732
:10C32000DDFF002802D02046FFF7A7FF2046FFF7D9
:10C3300025FF10BD70B504460849601A282103F096
:10C3400055FC05461D2D04D228206843034940189A
:10C3500070BD0020FCE70000F82B002070270020B3
:10C360002E2E5C2E2E5C2E2E5C7262635F6D6573CA
:10C37000685C7372635C6D6573685F7061636B6545
:10C38000742E6300E4FE0000FFFF00000146087900
:10C39000C0064B685B0918430B681A1A08894004E9
:10C3A0008B68DB0B18434B6858400860CB68886883
:10C3B000C0184860C8688018886008688018C8601D
:10C3C000C8687047F8B507460D4600241AE000BF5C
:10C3D000684639DF684600780028F9D0281B69468E
:10C3E0000978884202D2281BC0B2009038196946E9
:10C3F00009783ADF0646002E01D00320F8BD6846D2
:10C4000000782418AC42E2D30020F7E7F8B50446E0
:10C410000020009004216846FFF7D4FF0546002D58
:10C4200001D02846F8BD0948206000986060009857
:10C43000A0600098E060002603E02046FFF7A6FF1A
:10C44000761C142EF9D30020ECE70000ED5EEAF133
:10C450000188F94A914202D1C821018002E0018895
:10C46000491C0180704710B50446002C00D110BD56
:10C470002069002804D02069FFF73DFE00202061DC
:10C480002046FDF786FD00BFF1E770B58020EB493F
:10C49000886000BF00BF8020E849C860E84806887F
:10C4A00015E014207043E7494018006900280DD1B9
:10C4B00014217143E34A88180021FDF707FDE04885
:10C4C0000088401CDE490880B0B270BD761C022E88
:10C4D000E7D3DD4804680CE000BF0A206043DB4975
:10C4E0004018C0884404640C00BF032C01D1022012
:10C4F000EBE70A206043D549401800890228EBD0B9
:10C500000A2060434018C088C00B0028E4D10A20EC
:10C5100060434018058900BF022D01D2012000E0D0
:10C5200000200646002E05D100BFC9A28E21FBF7D0
:10C530004BFE00BF00BF02210A206043C34A80189F
:10C54000018114216943BF4A8818FFF78CFF142129
:10C550006943BC4A88180021FDF7B8FCA8B2B4E7CB
:10C5600070B505460E46FFF72DF9002E14D0C248CF
:10C570000088A84210D1C148008803280CDABF48BF
:10C5800000880A214843B149085AA84204D1FFF75C
:10C5900031F9BA48008870BDB948008884B210E00B
:10C5A000A9480068A04203D1FFF724F90320F2E76D
:10C5B00000BF0A206043A549401880884404640CE9
:10C5C00000BF0A206043A149085AA842E8D1002EC2
:10C5D00003D0A9480580A9480480FFF70BF920463D
:10C5E000D9E770B5054601212846FFF7B9FF044693
:10C5F000032C43D19448008884B20CE000BF0A2089
:10C60000604392494018C0884404640C00BF032C66
:10C6100001D1204670BD0A2060438C494018C08873
:10C62000C00B0028EAD10A2060430D520A20604363
:10C63000401880880121C90388430A216143834A45
:10C640008918888000210A206043801841800A20D0
:10C65000604311464018008902280FD00A21614327
:10C660008918098914225143764A8818FFF7FBFE7E
:10C6700002210A206043754A8018018172480068CF
:10C68000844225D07E480068844237D00A20604327
:10C690006E49401880884004400C0A2148436B4989
:10C6A0004018C088C00BC0030A216143674A89183B
:10C6B000C9884904490C08430A21614389188988BB
:10C6C0004904490C0A225143604A8918C88015E080
:10C6D0000A2060435D494018C0884004400C5A4914
:10C6E00008600A206043594940188088C00BC00385
:10C6F000C01C0A216143554A891888806048006837
:10C7000084425AD00A20604350494018C0884004EF
:10C71000400C03281FD00A2060434018C088400402
:10C72000400C0A214843494940188088C00BC00387
:10C730000A216143454A891889884904490C0843FC
:10C740000A2161438918C9884904490C0A225143C6
:10C750003E4A891888800A2060433C494018C088B6
:10C76000C00BC003C01C0A216143384A8918C88025
:10C770000A206043114640188088C00BC00340491E
:10C7800009884904490C08430A21614389188880B3
:10C790003B4800680A21484311464018C088C00B36
:10C7A000C0036104490C0843354909680A22514312
:10C7B000264A8918C88032480460314800680A2136
:10C7C000484322494018C088C00BC003C01C2C49F4
:10C7D00009680A2251431D4A8918C8801A4800680E
:10C7E0000A214843114640188088C00BC003C01C72
:10C7F000154909680A225143144A8918888020463D
:10C8000008E7F8B507460E46002E01D10E20F8BD08
:10C810000948874201D11020F9E701213846FFF786
:10C820009FFE0446032C2DD13846FFF7DAFE04465E
:10C83000032C27D10420EAE7FFFF00000005005089
:10C840000C210020382C002008210020182C00206A
:10C850002E2E5C2E2E5C2E2E5C7262635F6D6573D5
:10C86000685C7372635C68616E646C655F73746F3F
:10C87000726167652E630000102100200E210020E8
:10C88000042100200A206043F74940180589022D41
:10C890000BD1FFF7FAFD0546022D01D10420B6E7C2
:10C8A0000A206043F04940180581FCF7E5FC14219B
:10C8B0006943EE4A009088180099FDF707FB31881C
:10C8C0000A206043E84A8018418014206843E74901
:10C8D00040180069002806D014216943E34A8918EA
:10C8E0000869FFF708FC7068FFF7D8FB0A2060436F
:10C8F000DD4A8018008914225043DC4A8018716890
:10C900000161002083E7FEB505462E463046FFF75D
:10C9100089FC0446002C29D0E079A1790002084363
:10C920006946088001966179227909021143084617
:10C930000121FFF715FE0746032F09D00A2078438F
:10C94000C94940184088694608806846FFF780FD5D
:10C9500068460088A071000AE071617922790902B5
:10C96000114308466946FFF74CFF00BF3046FFF70A
:10C97000C2FBFEBD10B50446BD48844202D3BD488B
:10C98000844201D9072010BD03220121C90220469B
:10C99000FDF772FA0020F6E770B50546FEF712FFC4
:10C9A0002846FFF7E7FF0446002C03D0FEF722FFDE
:10C9B000204670BD002006E0002214214143AB4B0D
:10C9C000C9180A61401C0228F6D3002046E0002264
:10C9D000D2430A214143A44B5A5200220A21414327
:10C9E000C9184A800A2141431A468918C988012278
:10C9F000D20391430A224243D218D1800A214143F3
:10CA00001A46891889880122D20391430A22424397
:10CA1000D218918002220A214143C9180A810A21B1
:10CA200041431A468918C988C90BC903421E5204DA
:10CA3000520C11430A224243D218D1800A214143A9
:10CA40001A4689188988C90BC903421C5204520C22
:10CA500011430A224243D2189180401C0328B6D3C6
:10CA600000208549086002208449086082480068E7
:10CA70000A2148437C494018C088C00BC003C01C31
:10CA80007D4909680A225143774A8918C8807B4842
:10CA900000680A214843114640188088C00BC00333
:10CAA000C01C764909680A2251436F4A8918888058
:10CAB000FEF7A0FE00207CE770B506460D46002D6F
:10CAC00001D10E2070BD0020286068606C4886424D
:10CAD00001D11020F6E7FEF775FE00213046FFF782
:10CAE0003FFD0446032C03D1FEF784FE0520E9E751
:10CAF0000A2060435C494018408828800A2060432F
:10CB000040180089022818D00A216143564A891822
:10CB1000098914225143554A89180869FFF7BEFA5A
:10CB200000280AD00A2060434F4940180089142188
:10CB300048434E49401800696860FEF75BFE0020DC
:10CB4000C0E730B585B00446002C02D10E2005B0F8
:10CB500030BD02206946087002944A480190684638
:10CB6000FEF7F5FD0546002D02D12046FFF796FAA7
:10CB70002846ECE7F7B582B00E461546032E02DBD9
:10CB8000072005B0F0BD3E490298884201D110202F
:10CB9000F7E701210298FFF7E3FC0446002E04D0DA
:10CBA000012E1FD0022E5ED139E0032C07D102984E
:10CBB000FFF717FD0446032C01D10420E1E70A200A
:10CBC000604329494018C0880121C9038843E9030B
:10CBD0000122D203114008430A216143224A8918E5
:10CBE000C880A9E0032C07D10298FFF7FAFC04469D
:10CBF000032C01D10420C4E70A2060431A494018DD
:10CC000080880121C9038843E9030122D20311402E
:10CC100008430A216143144A891888808CE0002D5A
:10CC200018D0032C01D10020ABE70A2060430E4945
:10CC300040180089022801D10020A2E70A2161439F
:10CC4000094A8918098914225143084A8818FDF7AE
:10CC50009DF96EE00020019001A8FFF7E2F900289D
:10CC600012D104208DE765E0182C0020382C00201C
:10CC7000881300000087930304210020082100206E
:10CC8000FFFF000007C90100002003460246009094
:10CC900002990198FFF78DFA0746002F04D00198FA
:10CCA000FFF729FA38466CE7032C04D10198FFF707
:10CCB0002AFE002065E70A206043C6494018008923
:10CCC00002280FD1FFF7E1FB0A216143C14A89180D
:10CCD00008810A206043114640180089022801D1CA
:10CCE00004204EE70A206043BA4940180089142105
:10CCF0004843B94940180069002803D00198FFF75C
:10CD0000FAF90AE00A206043B24A80180089142226
:10CD10005043B14A8018019901610A216143AD4A2B
:10CD20008918098914225143AB4A8818FDF731F953
:10CD300000BF01E0072024E700BF002021E770B515
:10CD400086B004460E4615460421684601710481EA
:10CD500001A88671C571FEF7FAFC06B070BDF8B582
:10CD600007460E461546032E01DB0720F8BD002DB1
:10CD700001D10E20FAE79948874201D11020F5E74A
:10CD8000FEF720FD00213846FFF7EAFB0446032C9E
:10CD900003D1FEF72FFD0520E8E7002E02D0012E7B
:10CDA00010D107E00A2060438A494018C088C00BB0
:10CDB00028700BE00A206043864940188088C00B29
:10CDC000287003E0FEF716FD0720CFE700BFFEF74F
:10CDD00011FD0020CAE7F8B506460F467F48864297
:10CDE00001D11020F8BD01213046FFF7B9FB044600
:10CDF000032C01D10520F5E70A206043754940184E
:10CE00000589022D01D10520ECE714216943724AFE
:10CE100088183946FDF73EF80020E3E7F8B50646E6
:10CE20000F466E48864201D11020F8BD01213046E0
:10CE3000FFF796FB0446032C01D10520F5E70A20F5
:10CE40006043644940180589022D01D10520ECE7B3
:10CE500014216943604A88183946FDF74CF80020D0
:10CE6000E3E770B5054600260020287000241FE087
:10CE700014216143584A8818FCF780FF002816D017
:10CE80001420604354494018006900280FD02878C6
:10CE9000002806D0142060430858801B504988425F
:10CEA00005D901202870142060434B490E58641C9A
:10CEB000022CDDD3304670BDF7B582B0044615466E
:10CEC000002600275DE004E046480088801E4549B2
:10CED0000880444800880228F6DA42480088142175
:10CEE00048433D4940180069002844D03D4909881D
:10CEF00014225143384A8818FCF740FF00283AD0E2
:10CF0000384800881421484333490858201A3449C6
:10CF1000884230D8002101913249098814225143B6
:10CF20002D4A8818224601A9FDF710F868460079B5
:10CF300000281FD02B49098814225143264A8918FA
:10CF40000869FFF7ABF827480088142148432249B5
:10CF5000401802693046761C8100039842502868C8
:10CF6000B04207D11F480088401C1E49088000209D
:10CF700005B0F0BD00BF1B480088401C194908805F
:10CF80007F1C022F9FD32E600020F1E7F8B50646E4
:10CF90000F461248864201D11020F8BD01213046CB
:10CFA000FFF7DEFA0446032C01D10520F5E70A203D
:10CFB0006043084940180589022D01D10520ECE79E
:10CFC00014216943044A88183946FCF7ACFF002055
:10CFD000E3E70000182C0020382C0020FFFF0000A1
:10CFE000FFFFFF7F12210020A94A1268002A07D004
:10CFF000A74B02681B681B68D21AA64B9A4205D938
:10D00000A34A12680261A24A10607047A04A1168E0
:10D0100000E009690A69002A06D00A6912680368F3
:10D02000D21A9C4B9A42F4D80A690261086100BF87
:10D03000EBE7014696480068884205D1944B0869A1
:10D0400018600020086170479148026808E0106984
:10D05000884204D10869106100200861F3E7126971
:10D06000002A09D01069002806D0086813691B68D7
:10D07000C01A884B9842EAD90520E4E730B585B05C
:10D08000054683484068002801D005B030BD27E040
:10D090007F48046801206946087060680190E16873
:10D0A000039102956846FEF752FB002800D0ECE79A
:10D0B00077492069086000202061A06800280ED010
:10D0C00000BFA168206840182060284664302168AD
:10D0D000081A70498842F4D82046FFF785FF00BF40
:10D0E0006B480068002808D0694800680168284635
:10D0F0006430081A67498842CAD800BFC5E710B52E
:10D1000004462046FFF7BAFF204600F001F810BDA4
:10D1100010B504465E480068002816D05C480068D8
:10D120000068201A5B49884208D9594800680023E2
:10D13000594A01680120FCF753F906E00023564ADA
:10D14000214664310120FCF74BF910BD70B504464F
:10D1500008205249886000BF00BF08204F49C860BE
:10D160002546FCF789F806462846FFF73DFF30467E
:10D17000FFF784FF3046FFF7CBFF70BD70B5044664
:10D1800008204649886000BF00BF08204349C860A6
:10D19000FCF772F805462046FFF74BFF2846FFF7DD
:10D1A000B7FF70BD70B5044608203C49886000BFD9
:10D1B00000BF08203949C860FCF75EF806462046E3
:10D1C000FFF737FF2046FFF70FFFEFF31080C5078B
:10D1D000ED0F72B62E484068401E2D494860002D64
:10D1E00000D162B63046FFF749FF3046FFF790FFA7
:10D1F00070BD002026490860704710B586B004460F
:10D20000002C02D10E2006B010BD002020610220AB
:10D210006946087122480290039401A8FEF797FA24
:10D22000F1E710B586B00446002C02D10E2006B0FE
:10D2300010BD0220694608711A480290039401A8A3
:10D24000FEF785FAF3E7F0B585B004460E46002CEC
:10D2500002D10E2005B0F0BD0220694608701248C8
:10D2600001900294EFF31080C707FF0F72B6684673
:10D27000FEF76DFA0546002D05D105484068401CB3
:10D28000034948602660002F00D162B62846E1E7D6
:10D2900014210020FFFFFF7FFFD001000005005098
:10D2A0004DD101007DD10100A5D1010070B5054629
:10D2B0000C46012D04D0022D0CD0042D19D110E004
:10D2C000F948016848780978000208432070000A8C
:10D2D000607010E0F448006881782170C078607058
:10D2E00009E00A22F0480168091D204602F004FC0A
:10D2F00001E0062070BD00BF0020FBE70146087A70
:10D30000002808D18B7A01209840401EE74B5843F3
:10D310004A6810187047887AE44B58434A681018D6
:10D32000F8E710B5E2490A6800200FE001218140CA
:10D330001140002909D041B2CC06E40E0123A340DC
:10D34000DB4C8034236000BF00BF401C2028EDD39D
:10D3500010BDF8B50546D7482F18002472E00C2000
:10D360006043D549085800286BD00C216143D24A4C
:10D370008818FFF7C3FF06467D20C0002818301A22
:10D38000CC4988424BD90C216143CB4A5058CB49F8
:10D39000FDF7E9F9002842D10C206043C649401846
:10D3A000807A401CC1B20C206043C34A801881724D
:10D3B0000C20604311464018807AFF280FD10C20C2
:10D3C00060434018407AFF2809D10C206043401880
:10D3D000466000210C2060438018817218E00C2008
:10D3E0006043B5494018817A0C206043B24A8018E6
:10D3F000407A81420CDB0C2161435058FEF77BFEE2
:10D400000C206043AC4940180021016041608160FC
:10D410000C216143A84A8818FFF770FF0646701B6D
:10D42000A449884201D9A81B00E0701B791BA14ABE
:10D43000914201D9E91B00E0791B884200D23746AE
:10D4400000BF641C082C8AD39D48076000BF394682
:10D45000FFF7F9FE0446002C06D000BF99A2B221C6
:10D460002046FAF7B1FE00BF00BF01209D490870B9
:10D47000F8BD70B504469C480068002804D19BA103
:10D4800001F097F8082070BD0120FBF7ACFC2046A6
:10D4900095490968884705460020FBF7A4FC284603
:10D4A000F1E730B587B004460D4602209849C860C0
:10D4B000224698A1002001F07CF8232069460871DB
:10D4C00001A8FFF7D6FF07B030BD30B587B00446DE
:10D4D0000D4602208E49C860224696A1002001F028
:10D4E00068F80321684601710021017201A8FFF765
:10D4F000C0FF07B030BD70B586B005460C46012DA3
:10D5000004D0022D0CD0032D1CD113E060206946FD
:10D510000870019422468DA1002001F04AF81CE019
:10D52000612069460870019422468FA1002001F015
:10D5300040F812E062206946087092A1002001F0D4
:10D5400038F80AE000BF072600BF5EA2DD210720F1
:10D55000FAF73AFE00BF00BF00BF00BF6846FFF702
:10D5600088FF06B070BD10B592B001200007806B37
:10D5700001210907496B4843001F01214907401851
:10D5800000685949086008460068002810D001204A
:10D5900000074069012109070969484352490968A0
:10D5A000884205D97C4840694F49096888420BD9AF
:10D5B0004D487AA10268002000F0FBFF00204A4994
:10D5C0000860062012B010BD8048FEF71FFF80489B
:10D5D0008049486000208860C86008617E483849FA
:10D5E000486000208860C860086101203D490870DB
:10D5F00000203249087025204870072088700020DC
:10D60000C8707648FBF746FB182275490CA8FAF754
:10D61000A3FD0CA8FFF72DFF0446002C01D02046E7
:10D62000D0E73021684601760221818300210891EC
:10D6300006A8FFF71EFF0446002C01D02046C1E7D4
:10D640001949089808601822654918316846FAF7A0
:10D6500083FD6846FFF70DFFB4E710B54E484069FB
:10D66000401C002808D0FFF75CFE5E483EDF01202A
:10D6700044DF35DF002010BD0F20FCE730B587B058
:10D6800004460D46607821780002084356498842D6
:10D6900002DC102007B030BDFBF746FB002801D0AC
:10D6A0001120F7E7A2E0000028210020A086010059
:10D6B00000E100E0FFFFFF7F882C002021210020F7
:10D6C000742C00202E2E5C2E2E5C2E2E5C7262633B
:10D6D0005F6D6573685C7372635C6466755F6170CF
:10D6E000702E6300202100201C2100201B5B306D68
:10D6F0001B5B323B33316D4552524F523A204E6FD5
:10D7000020434D442068616E646C6572210A0000FC
:10D71000000500501B5B306D41424F52542054694C
:10D720006D656F7574206669726564204025640AB2
:10D73000000000001B5B306D54696D656F757420CF
:10D740006669726564204025640A00001B5B306DC9
:10D75000577269746520636F6D706C6574652028FD
:10D7600030782578290A00001B5B306D45726173A3
:10D770006520636F6D706C6574652028307825783E
:10D78000290A00001B5B306D466C61736820696478
:10D790006C652E0A00000000001000101B5B306D4D
:10D7A0001B5B323B33316D4552524F522C20636F1D
:10D7B0006D6D616E642068616E646C6572204030CE
:10D7C0007825780A1B5B323B33376D00E82C00204C
:10D7D000CBD40100602C002053D30100F7D401000A
:10D7E00064FF01000F000F00EFFF00001822F14955
:10D7F00001A8FAF7B1FC0294039501A8FFF739FEDE
:10D8000048E770B586B004460D461646002D02D195
:10D810000E2006B070BD20216846017004710A22F6
:10D820002946401D02F068F904966846FFF721FE7C
:10D83000EFE730B587B004460D46002D02D10E202B
:10D8400007B030BD21216846017104720A222946C1
:10D85000093002F051F90021059101A8FFF709FEF6
:10D86000EEE710B586B02320694608706846FFF7DA
:10D8700000FE0446002C03D10E21CF4802F09BF994
:10D88000204606B010BD30B587B005460C46002CCA
:10D8900002D10E2007B030BD252168460171057206
:10D8A000039401A8FFF7E5FDF4E730B587B004461F
:10D8B000242168460171047201A8FFF7DAFD0546CC
:10D8C000284607B030BD10B50446002C01D10E200B
:10D8D00010BDB9480078002801D10820F8E70E22D1
:10D8E000B549204602F008F90020F1E770B588B08C
:10D8F00004462278B1A1002000F05BFE20782528A4
:10D900007CD012DC212848D008DC00281ED0012859
:10D9100075D0022874D0202873D11DE0222855D05C
:10D9200023286FD02428F7D1AEE061286BD006DC25
:10D93000502869D0512868D06028EDD129E16228AB
:10D9400072D0702871D07128E6D1DDE2221DA0A12D
:10D95000002000F02EFEECE22279A1A1002000F0D0
:10D9600028FE0921684601719348417801A8417158
:10D9700091480178684601720A228F49891C0A3051
:10D9800002F0BAF8217901A801740E218A4802F048
:10D9900012F901A8FAF731FFCBE299A1002000F0BB
:10D9A00008FE052168460171617901720A22A11DF4
:10D9B000093002F0A1F8607904A90331FFF776FC81
:10D9C000002802D101A8FAF718FFB2E291A10020C5
:10D9D00000F0EFFD2079022802D003281CD115E0C9
:10D9E000062168460171A17901720A22E11D093000
:10D9F00002F082F8A17901A8C17310E059E08CE22D
:10DA000073E090E212E03AE285E0A6E00721684682
:10DA10000171A179017202E0062008B070BD00BF5B
:10DA200001A8FAF7EAFE84E22EE24BE280A1002090
:10DA300000F0BFFD2079012803D104205E4908735E
:10DA400005E02079022802D108205B4908730821EB
:10DA500068460171617901A841710A22A11D801DEA
:10DA600002F04AF821796846017201A8FAF7C5FE6A
:10DA7000734874494860FBF7FFFB73494518294612
:10DA80007048FFF7E0FBC8E7E188A28864235A43A7
:10DA9000104602F0ABF84849487369486949486044
:10DAA000FBF7EAFB6949451829466648FFF7CBFBB7
:10DAB000B3E767A1002000F07CFD092168460171F1
:10DAC000617901A841710A22A11D801D02F014F89C
:10DAD000002101A8017421796846017201A8FAF7B2
